{
  "contractName": "Factory",
  "abi": [
    {
      "constant": false,
      "inputs": [
        {
          "name": "code",
          "type": "bytes"
        },
        {
          "name": "addr",
          "type": "address"
        }
      ],
      "name": "deploy",
      "outputs": [],
      "payable": false,
      "stateMutability": "nonpayable",
      "type": "function",
      "signature": "0x411a0179"
    }
  ],
  "bytecode": "0x608060405234801561001057600080fd5b50610174806100206000396000f3fe608060405234801561001057600080fd5b5060043610610048576000357c010000000000000000000000000000000000000000000000000000000090048063411a01791461004d575b600080fd5b6101266004803603604081101561006357600080fd5b810190808035906020019064010000000081111561008057600080fd5b82018360208201111561009257600080fd5b803590602001918460018302840111640100000000831117156100b457600080fd5b91908080601f016020809104026020016040519081016040528093929190818152602001838380828437600081840152601f19601f820116905080830192505050505050509192919290803573ffffffffffffffffffffffffffffffffffffffff169060200190929190505050610128565b005b6000808351602085016000f59050803b151561014357600080fd5b50505056fea165627a7a723058209d1cf2863ecba4028c43003b402aa3fe7496485028a86600eac0dcf24954f0e60029",
  "source": "pragma solidity >0.4.25 <0.6.0;\n\ncontract Factory {\n    function deploy(bytes memory code, address addr) public {\n        address addr;\n        assembly {\n            addr := create2(0, add(code, 0x20), mload(code), addr)\n            if iszero(extcodesize(addr)) {\n                revert(0, 0)\n            }\n        }\n    }\n}",
  "sourcePath": "/Users/nebojsa.urosevic/go/src/github.com/tenderly/solidity-hmr/solidity/contracts/Factory.sol",
  "compiler": {
    "name": "solc",
    "version": "0.5.4+commit.9549d8ff.Emscripten.clang"
  },
  "schemaVersion": "3.0.2",
  "updatedAt": "2019-03-09T13:20:58.643Z",
  "devdoc": {
    "methods": {}
  },
  "userdoc": {
    "methods": {}
  }
}