{
  "contractName": "Factory",
  "abi": [
    {
      "constant": false,
      "inputs": [
        {
          "name": "code",
          "type": "bytes"
        },
        {
          "name": "addr",
          "type": "address"
        }
      ],
      "name": "deploy",
      "outputs": [],
      "payable": false,
      "stateMutability": "nonpayable",
      "type": "function",
      "signature": "0x411a0179"
    }
  ],
  "bytecode": "0x608060405234801561001057600080fd5b50610118806100206000396000f3fe6080604052348015600f57600080fd5b506004361060285760003560e01c8063411a017914602d575b600080fd5b60d860048036036040811015604157600080fd5b810190602081018135640100000000811115605b57600080fd5b820183602082011115606c57600080fd5b80359060200191846001830284011164010000000083111715608d57600080fd5b91908080601f016020809104026020016040519081016040528093929190818152602001838380828437600092019190915250929550505090356001600160a01b0316915060da9050565b005b6000818351602085016000f55050505056fea165627a7a72305820c982b388f33b19123d04518b25a6c3c1d26aeb2e3067e7c3621ba17156c6350b0029",
  "source": "pragma solidity >0.4.25 <0.6.0;\n\ncontract Factory {\n    function deploy(bytes memory code,  address addr) public {\n        address deployed;\n        assembly {\n            deployed := create2(0, add(code, 0x20), mload(code), addr)\n        }\n    }\n}",
  "sourcePath": "/Users/nebojsa.urosevic/go/src/github.com/tenderly/solidity-hmr/solidity/contracts/Factory.sol",
  "compiler": {
    "name": "solc",
    "version": "0.5.5+commit.47a71e8f.Emscripten.clang"
  },
  "schemaVersion": "3.0.2",
  "updatedAt": "2019-03-10T01:14:22.660Z",
  "devdoc": {
    "methods": {}
  },
  "userdoc": {
    "methods": {}
  }
}