{
  "contractName": "Increment",
  "abi": [
    {
      "constant": false,
      "inputs": [],
      "name": "increment",
      "outputs": [],
      "payable": false,
      "stateMutability": "nonpayable",
      "type": "function",
      "signature": "0xd09de08a"
    },
    {
      "constant": false,
      "inputs": [
        {
          "name": "_i",
          "type": "uint256"
        }
      ],
      "name": "setIncrement",
      "outputs": [],
      "payable": false,
      "stateMutability": "nonpayable",
      "type": "function",
      "signature": "0xddf3fc1a"
    }
  ],
  "bytecode": "0x608060405234801561001057600080fd5b5060cc8061001f6000396000f3fe6080604052348015600f57600080fd5b5060043610604f576000357c010000000000000000000000000000000000000000000000000000000090048063d09de08a146054578063ddf3fc1a14605c575b600080fd5b605a6087565b005b608560048036036020811015607057600080fd5b81019080803590602001909291905050506096565b005b60015460005401600081905550565b806001819055505056fea165627a7a72305820c7159075f94ab56be7f2cf989b3157dd515fdbeb57f1d9d57feb173a31ee310c0029",
  "source": "pragma solidity >0.4.25 <0.6.0;\n\ncontract Increment {\n    uint sum;\n    uint i;\n\n    function increment() public {\n        sum = sum + i; \n    }\n\n    function setIncrement(uint _i) public {\n        i = _i;\n    }\n}\n",
  "sourcePath": "/Users/nebojsa.urosevic/go/src/github.com/tenderly/solidity-hmr/solidity/contracts/Increment.sol",
  "compiler": {
    "name": "solc",
    "version": "0.5.4+commit.9549d8ff.Emscripten.clang"
  },
  "schemaVersion": "3.0.2",
  "updatedAt": "2019-03-09T20:10:34.720Z",
  "devdoc": {
    "methods": {}
  },
  "userdoc": {
    "methods": {}
  }
}