{
  "contractName": "Increment",
  "abi": [
    {
      "constant": true,
      "inputs": [],
      "name": "sum",
      "outputs": [
        {
          "name": "",
          "type": "uint256"
        }
      ],
      "payable": false,
      "stateMutability": "view",
      "type": "function",
      "signature": "0x853255cc"
    },
    {
      "constant": true,
      "inputs": [],
      "name": "i",
      "outputs": [
        {
          "name": "",
          "type": "uint256"
        }
      ],
      "payable": false,
      "stateMutability": "view",
      "type": "function",
      "signature": "0xe5aa3d58"
    },
    {
      "constant": false,
      "inputs": [],
      "name": "increment",
      "outputs": [],
      "payable": false,
      "stateMutability": "nonpayable",
      "type": "function",
      "signature": "0xd09de08a"
    },
    {
      "constant": false,
      "inputs": [
        {
          "name": "_i",
          "type": "uint256"
        }
      ],
      "name": "setIncrement",
      "outputs": [],
      "payable": false,
      "stateMutability": "nonpayable",
      "type": "function",
      "signature": "0xddf3fc1a"
    }
  ],
  "bytecode": "0x608060405234801561001057600080fd5b5060d78061001f6000396000f3fe6080604052348015600f57600080fd5b506004361060465760003560e01c8063853255cc14604b578063d09de08a146063578063ddf3fc1a14606b578063e5aa3d58146085575b600080fd5b6051608b565b60408051918252519081900360200190f35b60696091565b005b606960048036036020811015607f57600080fd5b503560a0565b605160a5565b60005481565b60015460005401600081905550565b600155565b6001548156fea165627a7a7230582061a93b2ae3c825d057c8c7d00f464adc1effb3323e54705cd54cc3b5130e51490029",
  "source": "pragma solidity >0.4.25 <0.6.0;\n\ncontract Increment {\n    uint public sum;\n    uint public i;\n\n    function increment() public {\n        sum = sum + i; \n    }\n\n    function setIncrement(uint _i) public {\n        i = _i;\n    }\n}\n",
  "sourcePath": "/Users/nebojsa.urosevic/go/src/github.com/tenderly/solidity-hmr/solidity/contracts/Increment.sol",
  "compiler": {
    "name": "solc",
    "version": "0.5.5+commit.47a71e8f.Emscripten.clang"
  },
  "schemaVersion": "3.0.2",
  "updatedAt": "2019-03-10T00:27:03.607Z",
  "devdoc": {
    "methods": {}
  },
  "userdoc": {
    "methods": {}
  }
}